:020000040800F2
:1000000000500020A51F0008551D00085B1D0008BA
:10001000611D0008671D00086D1D0008000000003C
:10002000000000000000000000000000731D000838
:100030007F1D0008000000008B1D0008971D0008B0
:10004000ED1F0008ED1F0008ED1F0008ED1F000860
:10005000ED1F0008A31D0008ED1F0008ED1F00089C
:10006000ED1F0008ED1F0008ED1F0008ED1F000840
:10007000ED1F0008ED1F0008ED1F0008B11D00086E
:10008000ED1F0008ED1F0008ED1F0008ED1F000820
:10009000ED1F0008ED1F0008ED1F0008ED1F000810
:1000A000ED1F0008ED1F0008ED1F0008ED1F000800
:1000B000ED1F0008C51D0008ED1F0008ED1F00081A
:1000C000ED1F0008ED1F0008ED1F0008ED1F0008E0
:1000D000ED1F0008ED1F0008D91D0008ED1F0008E6
:1000E000ED1F0008ED1F0008ED1F000800000000D4
:1000F0000000000000000000000000000000000000
:0C01000000000000000000005FF808F1A3
:1001100010B5054C237833B9044B13B10448AFF341
:1001200000800123237010BDDC01002000000000CE
:100130006491000808B5034B1BB103490348AFF3B2
:10014000008008BD00000000E0010020649100086C
:10015000034613F8012B002AFBD1181A0138704707
:1001600081F0004102E000BF83F0004330B54FEA68
:1001700041044FEA430594EA050F08BF90EA020FD5
:100180001FBF54EA000C55EA020C7FEA645C7FEA68
:10019000655C00F0E2804FEA5454D4EB5555B8BF8B
:1001A0006D420CDD2C4480EA020281EA030382EAFC
:1001B000000083EA010180EA020281EA0303362D8E
:1001C00088BF30BD11F0004F4FEA01314FF4801C61
:1001D0004CEA113102D0404261EB410113F0004F73
:1001E0004FEA03334CEA133302D0524263EB43032A
:1001F00094EA050F00F0A780A4F10104D5F1200EC8
:100200000DDB02FA0EFC22FA05F2801841F1000122
:1002100003FA0EF2801843FA05F359410EE0A5F1F6
:1002200020050EF1200E012A03FA0EFC28BF4CF027
:10023000020C43FA05F3C01851EBE37101F00045DD
:1002400007D54FF0000EDCF1000C7EEB00006EEBEA
:100250000101B1F5801F1BD3B1F5001F0CD3490874
:100260005FEA30004FEA3C0C04F101044FEA4452CB
:1002700012F5800F80F09A80BCF1004F08BF5FEA52
:10028000500C50F1000041EB045141EA050130BD32
:100290005FEA4C0C404141EB0101013C28BFB1F544
:1002A000801FE9D291F0000F04BF01460020B1FA8F
:1002B00081F308BF2033A3F10B03B3F120020CDA62
:1002C0000C3208DD02F1140CC2F10C0201FA0CF040
:1002D00021FA02F10CE002F11402D8BFC2F1200CA5
:1002E00001FA02F120FA0CFCDCBF41EA0C0190405B
:1002F000E41AA2BF01EB0451294330BD6FEA0404A4
:100300001F3C1CDA0C340EDC04F11404C4F120028E
:1003100020FA04F001FA02F340EA030021FA04F3A0
:1003200045EA030130BDC4F10C04C4F1200220FAF7
:1003300002F001FA04F340EA0300294630BD21FA35
:1003400004F0294630BD94F0000F83F4801306BFFB
:1003500081F480110134013D4EE77FEA645C18BFEF
:100360007FEA655C29D094EA050F08BF90EA020F86
:1003700005D054EA000C04BF1946104630BD91EA7E
:10038000030F1EBF0021002030BD5FEA545C05D181
:100390004000494128BF41F0004130BD14F58004C0
:1003A0003CBF01F5801130BD01F0004545F0FE4134
:1003B00041F470014FF0000030BD7FEA645C1ABF69
:1003C000194610467FEA655C1CBF0B46024650EAA0
:1003D000013406BF52EA033591EA030F41F40021CC
:1003E00030BD00BF90F0000F04BF0021704730B552
:1003F0004FF4806404F132044FF000054FF0000127
:1004000050E700BF90F0000F04BF0021704730B5E7
:100410004FF4806404F1320410F0004548BF4042BC
:100420004FF000013EE700BF42004FEAE2014FEA11
:1004300031014FEA02701FBF12F07F4393F07F4FEC
:1004400081F06051704732F07F4208BF704793F0EF
:100450007F4F04BF41F40021704730B54FF4607402
:1004600001F0004521F000411CE700BF50EA010205
:1004700008BF704730B54FF000050AE050EA0102AE
:1004800008BF704730B511F0004502D5404261EB1E
:1004900041014FF4806404F132045FEA915C3FF45F
:1004A000D8AE4FF003025FEADC0C18BF03325FEAFC
:1004B000DC0C18BF033202EBDC02C2F1200300FAAD
:1004C00003FC20FA02F001FA03FE40EA0E0021FAD2
:1004D00002F11444BDE600BF70B54FF0FF0C4CF4C0
:1004E000E06C1CEA11541DBF1CEA135594EA0C0F72
:1004F00095EA0C0F00F0DEF82C4481EA030621EAAD
:100500004C5123EA4C5350EA013518BF52EA0335E7
:1005100041F4801143F4801338D0A0FB02CE4FF099
:100520000005E1FB02E506F00042E0FB03E54FF0C9
:100530000006E1FB03569CF0000F18BF4EF0010EC1
:10054000A4F1FF04B6F5007F64F5407404D25FEABD
:100550004E0E6D4146EB060642EAC62141EA555170
:100560004FEAC52040EA5E504FEACE2EB4F1FD0CB2
:1005700088BFBCF5E06F1ED8BEF1004F08BF5FEA30
:10058000500E50F1000041EB045170BD06F00046E2
:1005900046EA010140EA020081EA0301B4EB5C048F
:1005A000C2BFD4EB0C0541EA045170BD41F4801187
:1005B0004FF0000E013C00F3AB8014F1360FDEBFAC
:1005C000002001F0004170BDC4F10004203C35DA88
:1005D0000C341BDC04F11404C4F1200500FA05F30B
:1005E00020FA04F001FA05F240EA020001F00042AC
:1005F00021F0004110EBD37021FA04F642EB060122
:100600005EEA430E08BF20EAD37070BDC4F10C044B
:10061000C4F1200500FA04F320FA05F001FA04F20F
:1006200040EA020001F0004110EBD37041F10001FB
:100630005EEA430E08BF20EAD37070BDC4F1200506
:1006400000FA05F24EEA020E20FA04F301FA05F26E
:1006500043EA020321FA04F001F0004121FA04F216
:1006600020EA020000EBD3705EEA430E08BF20EAE6
:10067000D37070BD94F0000F0FD101F00046400020
:1006800041EB010111F4801F08BF013CF7D041EAA2
:10069000060195F0000F18BF704703F000465200A6
:1006A00043EB030313F4801F08BF013DF7D043EA77
:1006B0000603704794EA0C0F0CEA135518BF95EA2D
:1006C0000C0F0CD050EA410618BF52EA4306D1D1B4
:1006D00081EA030101F000414FF0000070BD50EAD3
:1006E000410606BF1046194652EA430619D094EA5D
:1006F0000C0F02D150EA013613D195EA0C0F05D147
:1007000052EA03361CBF104619460AD181EA03019A
:1007100001F0004141F0FE4141F470014FF0000052
:1007200070BD41F0FE4141F4780170BD70B54FF0ED
:10073000FF0C4CF4E06C1CEA11541DBF1CEA13556D
:1007400094EA0C0F95EA0C0F00F0A7F8A4EB05044F
:1007500081EA030E52EA03354FEA013100F0888046
:100760004FEA03334FF0805545EA131343EA12630F
:100770004FEA022245EA111545EA10654FEA0026C4
:100780000EF000419D4208BF964244F1FD0404F57D
:10079000407402D25B084FEA3202B61A65EB0305D9
:1007A0005B084FEA32024FF480104FF4002CB6EB96
:1007B000020E75EB030E22BFB61A754640EA0C0016
:1007C0005B084FEA3202B6EB020E75EB030E22BF56
:1007D000B61A754640EA5C005B084FEA3202B6EB97
:1007E000020E75EB030E22BFB61A754640EA9C0056
:1007F0005B084FEA3202B6EB020E75EB030E22BF26
:10080000B61A754640EADC0055EA060E18D04FEAE3
:10081000051545EA16754FEA06164FEAC30343EA83
:1008200052734FEAC2025FEA1C1CC0D111F4801F50
:100830000BD141EA00014FF000004FF0004CB6E749
:1008400011F4801F04BF01430020B4F1FD0C88BFE8
:10085000BCF5E06F3FF6AFAEB5EB030C04BFB6EBF3
:10086000020C5FEA500C50F1000041EB045170BDE6
:100870000EF0004E4EEA113114EB5C04C2BFD4EB13
:100880000C0541EA045170BD41F480114FF0000E97
:10089000013C90E645EA060E8DE60CEA135594EA13
:1008A0000C0F08BF95EA0C0F3FF43BAF94EA0C0F16
:1008B0000AD150EA01347FF434AF95EA0C0F7FF48B
:1008C00025AF104619462CE795EA0C0F06D152EADF
:1008D00003353FF4FDAE1046194622E750EA4106C3
:1008E00018BF52EA43067FF4C5AE50EA41047FF4D4
:1008F0000DAF52EA43057FF4EBAE12E74FF0FF3C39
:1009000006E000BF4FF0010C02E000BF4FF0010C09
:100910004DF804CD4FEA410C7FEA6C5C4FEA430C82
:1009200018BF7FEA6C5C1BD001B050EA410C0CBFD1
:1009300052EA430C91EA030F02BF90EA020F002033
:10094000704710F1000F91EA030F58BF994208BF9A
:1009500090422CBFD8176FEAE37040F00100704757
:100960004FEA410C7FEA6C5C02D150EA013C07D1AE
:100970004FEA430C7FEA6C5CD6D152EA033CD3D0F9
:100980005DF8040B704700BF8446104662468C46F3
:100990001946634600E000BF01B5FFF7B7FF002826
:1009A00048BF10F1000F01BD4DF808EDFFF7F4FF4F
:1009B0000CBF012000205DF808FB00BF4DF808EDDA
:1009C000FFF7EAFF34BF012000205DF808FB00BFFD
:1009D0004DF808EDFFF7E0FF94BF012000205DF81F
:1009E00008FB00BF4DF808EDFFF7CEFF94BF0120D4
:1009F00000205DF808FB00BF4DF808EDFFF7C4FFCD
:100A000034BF012000205DF808FB00BF4FEA410C15
:100A10007FEA6C5C02D150EA013C0AD14FEA430CF8
:100A20007FEA6C5C02D152EA033C02D14FF0000035
:100A300070474FF0010070474FEA410212F5001273
:100A400015D211D56FF47873B3EB625212D94FEA15
:100A5000C12343F0004343EA505311F0004F23FAFF
:100A600002F018BF404270474FF00000704750EA54
:100A7000013005D111F0004008BF6FF00040704711
:100A80004FF00000704700BF80F0004002E000BF60
:100A900081F0004142001FBF5FEA410392EA030F69
:100AA0007FEA226C7FEA236C6AD04FEA1262D2EBB3
:100AB0001363C1BFD218414048404140B8BF5B42B8
:100AC000192B88BF704710F0004F40F4000020F051
:100AD0007F4018BF404211F0004F41F4000121F067
:100AE0007F4118BF494292EA030F3FD0A2F10102B1
:100AF00041FA03FC10EB0C00C3F1200301FA03F1EF
:100B000000F0004302D5494260EB4000B0F5000F11
:100B100013D3B0F1807F06D340084FEA310102F1D0
:100B20000102FE2A51D2B1F1004F40EBC25008BF82
:100B300020F0010040EA03007047490040EB00004C
:100B4000013A28BFB0F5000FEDD2B0FA80FCACF14D
:100B5000080CB2EB0C0200FA0CF0AABF00EBC2507A
:100B600052421843BCBFD0401843704792F0000F68
:100B700081F4000106BF80F400000132013BB5E7BB
:100B80004FEA41037FEA226C18BF7FEA236C21D031
:100B900092EA030F04D092F0000F08BF0846704796
:100BA00090EA010F1CBF0020704712F07F4F04D164
:100BB000400028BF40F00040704712F100723CBF77
:100BC00000F50000704700F0004343F0FE4040F4A1
:100BD000000070477FEA226216BF08467FEA23635F
:100BE0000146420206BF5FEA412390EA010F40F44A
:100BF000800070474FF0000304E000BF10F0004396
:100C000048BF40425FEA000C08BF704743F096437C
:100C100001464FF000001CE050EA010208BF704797
:100C20004FF000030AE000BF50EA010208BF70471E
:100C300011F0004302D5404261EB41015FEA010C33
:100C400002BF84460146002043F0B64308BFA3F12B
:100C50008053A3F50003BCFA8CF2083AA3EBC2530D
:100C600010DB01FA02FC634400FA02FCC2F120022C
:100C7000BCF1004F20FA02F243EB020008BF20F063
:100C80000100704702F1200201FA02FCC2F12002C9
:100C900050EA4C0021FA02F243EB020008BF20EABE
:100CA000DC7070474FF0FF0C1CEAD0521EBF1CEAEC
:100CB000D15392EA0C0F93EA0C0F6FD01A4480EADA
:100CC000010C400218BF5FEA41211ED04FF00063C3
:100CD00043EA501043EA5111A0FB01310CF00040EF
:100CE000B1F5000F3EBF490041EAD3715B0040EA15
:100CF000010062F17F02FD2A1DD8B3F1004F40EBE5
:100D0000C25008BF20F00100704790F0000F0CF0B7
:100D1000004C08BF49024CEA502040EA51207F3A7B
:100D2000C2BFD2F1FF0340EAC250704740F4000056
:100D30004FF00003013A5DDC12F1190FDCBF00F047
:100D400000407047C2F10002410021FA02F1C2F1F5
:100D5000200200FA02FC5FEA310040F1000053EA91
:100D60004C0308BF20EADC70704792F0000F00F0DF
:100D7000004C02BF400010F4000F013AF9D040EAE5
:100D80000C0093F0000F01F0004C02BF490011F479
:100D9000000F013BF9D041EA0C018FE70CEAD15377
:100DA00092EA0C0F18BF93EA0C0F0AD030F0004CF7
:100DB00018BF31F0004CD8D180EA010000F00040AB
:100DC000704790F0000F17BF90F0004F084691F069
:100DD000000F91F0004F14D092EA0C0F01D14202A3
:100DE0000FD193EA0C0F03D14B0218BF084608D16C
:100DF00080EA010000F0004040F0FE4040F40000B6
:100E0000704740F0FE4040F4400070474FF0FF0C48
:100E10001CEAD0521EBF1CEAD15392EA0C0F93EA8F
:100E20000C0F69D0A2EB030280EA010C49024FEAE1
:100E3000402037D04FF0805343EA111143EA10139A
:100E40000CF000408B4238BF5B0042F17D024FF452
:100E5000000C8B4224BF5B1A40EA0C00B3EB510F2D
:100E600024BFA3EB510340EA5C00B3EB910F24BF16
:100E7000A3EB910340EA9C00B3EBD10F24BFA3EB9B
:100E8000D10340EADC001B0118BF5FEA1C1CE0D163
:100E9000FD2A3FF650AF8B4240EBC25008BF20F016
:100EA000010070470CF0004C4CEA50207F32C2BF6A
:100EB000D2F1FF0340EAC250704740F400004FF007
:100EC0000003013A37E792F0000F00F0004C02BF38
:100ED000400010F4000F013AF9D040EA0C0093F002
:100EE000000F01F0004C02BF490011F4000F013B5C
:100EF000F9D041EA0C0195E70CEAD15392EA0C0FC4
:100F000008D142027FF47DAF93EA0C0F7FF470AFFB
:100F1000084676E793EA0C0F04D14B023FF44CAF3E
:100F200008466EE730F0004C18BF31F0004CCAD1D3
:100F300030F000427FF45CAF31F000437FF43CAF0F
:100F40005FE700BF4FF0FF3C06E000BF4FF0010C31
:100F500002E000BF4FF0010C4DF804CD4FEA400213
:100F60004FEA41037FEA226C18BF7FEA236C11D05D
:100F700001B052EA530C18BF90EA010F58BFB2EB10
:100F8000030088BFC81738BF6FEAE17018BF40F090
:100F9000010070477FEA226C02D15FEA402C05D144
:100FA0007FEA236CE4D15FEA412CE1D05DF8040BC9
:100FB000704700BF844608466146FFE70FB5FFF75C
:100FC000C9FF002848BF10F1000F0FBD4DF808ED14
:100FD000FFF7F4FF0CBF012000205DF808FB00BF05
:100FE0004DF808EDFFF7EAFF34BF012000205DF85F
:100FF00008FB00BF4DF808EDFFF7E0FF94BF0120AC
:1010000000205DF808FB00BF4DF808EDFFF7D2FFA8
:1010100094BF012000205DF808FB00BF4DF808EDEB
:10102000FFF7C8FF34BF012000205DF808FB00BFB8
:1010300080B58AB002AF78603A4A07F110031268AF
:10104000114619800233120C1A7007F110024FF486
:10105000FA63009303237021334801F0C7FE03466F
:10106000FB77FB7F002B01D0FB7F56E0502001F087
:1010700021F807F108024FF4FA6300930723702167
:10108000294801F0B1FF0346FB77FB7F002B01D01D
:10109000FB7F42E03B7A5BB2002B01DA01233CE0AC
:1010A0007B7A1A04BB7A1B021343FA7A13431B118F
:1010B000BB61FB7A1B0403F470223B7B1B021343CE
:1010C0007A7B13437B61B869FFF794FD03464FF0C9
:1010D00093411846FFF79AFE034614491846FFF756
:1010E000E1FD03461A467B685A607869FFF782FD86
:1010F00003464FF093411846FFF788FE03460C491C
:101100001846FFF7CFFD03460A491846FFF7C0FC13
:1011100003461A467B681A60002318462037BD46EE
:1011200080BD00BF80910008480300200000C84235
:10113000000048430000484280B584B000AF584BDF
:101140001B78032B00F2A48001A252F823F000BF09
:10115000611100086D1100088F110008711200085C
:1011600000F01EF94E4B01221A7095E04D48FFF732
:101170005FFF0346002B03D1494B02221A708BE01C
:10118000474B03221A70484800F038F984E0454B79
:101190001B681846FFF748F902460B464349444886
:1011A00005F0A8FD3F4B5B681846FFF73DF9024686
:1011B0000B464049404805F09DFD3F4B3C4A3F49A6
:1011C0003F4805F097FD3E4800F0D6FE354B1B68C2
:1011D0003C4A126811461846FFF7F8FE0346002BFA
:1011E0001BD10021012000F025F9374800F006F955
:1011F0002C4B1B681846FFF717F902460B4607F100
:101200000800324905F076FD07F10803184600F0A2
:10121000F5F8244B1B682B4A1360224B5B682C4A61
:10122000126811461846FFF7D1FE0346002B19D16C
:101230000021002000F0FEF8264800F0DFF8194BEE
:101240005B681846FFF7F0F802460B46384622491D
:1012500005F050FD3B46184600F0D0F8114B5B6896
:101260001B4A136000F066F90D4B01221A7013E05F
:1012700000F0D9F80021002000F0DCF8174800F059
:10128000BDF84FF47A7000F015FF054B01221A707B
:10129000034B00221A7000BF00BF1037BD4680BD4F
:1012A000F80100204002002084910008909100087D
:1012B000300200209C91000820020020A891000824
:1012C00048020020FC010020B0910008B8910008FD
:1012D00000020020C0910008C8910008D0910008C9
:1012E00080B586B002AF0346FB71FB7923F00F0394
:1012F000FB73FB791B01BB73FB7B43F00C03DBB27D
:101300003B72FB7B43F00803DBB27B72BB7B43F099
:101310000C03DBB2BB72BB7B43F00803DBB2FB7296
:1013200007F108026423009304234221034801F0DB
:101330005DFD00BF1037BD4680BD00BF48030020E3
:1013400080B586B002AF0346FB71FB7923F00F0333
:10135000FB73FB791B01BB73FB7B43F00D03DBB21B
:101360003B72FB7B43F00903DBB27B72BB7B43F038
:101370000D03DBB2BB72BB7B43F00903DBB2FB7234
:1013800007F108026423009304234221034801F07B
:101390002DFD00BF1037BD4680BD00BF48030020B3
:1013A00080B500AF3320FFF79BFF3220FFF798FF97
:1013B000322000F07FFE2820FFF792FF322000F05D
:1013C00079FE0120FFF78CFF322000F073FE06202B
:1013D000FFF786FF322000F06DFE0C20FFF780FF44
:1013E000322000F067FE0220FFF77AFF322000F083
:1013F00061FE8020FFF774FF00BF80BD80B582B022
:1014000000AF786006E07B685A1C7A601B7818464B
:10141000FFF796FF7B681B78002BF4D100BF00BF5D
:101420000837BD4680BD80B500AF0120FFF758FFEB
:1014300000BF80BD80B584B000AF786039607B6844
:10144000012B08D17B68DAB23B68DBB21344DBB214
:101450007F33FB7308E03B68DBB24033DBB25BB247
:1014600063F07F035BB2FB73FB7B1846FFF738FF2B
:1014700000BF1037BD4680BD80B487B000AF0346C3
:10148000FB710B46BB7113467B71BB791A04FB7968
:101490001B021A437B791343BB600023FB82172393
:1014A0003B611CE001223B6902FA03F31A46BB6868
:1014B0001340002B08D0FB8A5A1CFA821A46134BA1
:1014C000062123F8121007E0FB8A5A1CFA821A46FA
:1014D0000E4B032123F812103B69013B3B613B6932
:1014E000002BDFDAFB8AFB6007E0084AFB6800217B
:1014F00022F81310FB680133FB60FB68492BF4D919
:1015000000BF00BF1C37BD4680BC70477002002082
:1015100080B500AF4A23054A0021054803F000F9D1
:10152000012000F0C7FD00BF80BD00BF7002002099
:10153000E403002080B500AF2F4B1B682F491846ED
:10154000FFF74EFD0346002B07D0FF2200210020AD
:10155000FFF792FFFFF7DCFF4BE0274B1B684FF0D4
:1015600000011846FFF73CFD0346002B07D0802200
:1015700080210020FFF780FFFFF7CAFF39E01E4BF4
:101580001B681F491846FFF72BFD0346002B07D0A9
:101590000022FF210020FFF76FFFFFF7B9FF28E0CF
:1015A000154B1B6817491846FFF71AFD0346002B19
:1015B00007D00022AA215520FFF75EFFFFF7A8FF02
:1015C00017E00D4B1B6810491846FFF709FD03464D
:1015D000002B07D000225521AA20FFF74DFFFFF76F
:1015E00097FF06E000220021FF20FFF745FFFFF7ED
:1015F0008FFF00BF80BD00BFFC0100200000A0C124
:101600000000A041000020420000704280B500AF01
:1016100000F0EEFC00F032F800F0A4F900F06AF8F7
:1016200000F096F800F080F900F054F900F004F9A9
:101630000F4802F029FF0F4802F026FF00210C4856
:1016400002F0CCFFFFF7ACFEFFF7EDFE4FF47A702F
:1016500000F030FDC82000F0C3F9074B1B68012BD8
:10166000FBD1FFF769FD4FF47A7000F0B9F9F4E7A8
:10167000E40300209C0300200802002080B590B005
:1016800000AF07F1180328220021184604F0CAFE13
:101690003B1D00221A605A609A60DA601A610223C8
:1016A000BB610123BB621023FB6200237B6307F154
:1016B0001803184602F08AFA0346002B01D000F006
:1016C00089F90F237B600023BB600023FB600023AC
:1016D0003B6100237B613B1D0021184602F0F6FCB4
:1016E0000346002B01D000F075F900BF4037BD461E
:1016F00080BD000080B500AF124B134A1A60114B39
:10170000124A5A600F4B00229A600E4B0022DA6098
:101710000C4B4FF480421A610A4B00225A61094B6C
:1017200000229A61074B0022DA61064B00221A62FE
:10173000044801F017FA0346002B01D000F04AF9E3
:1017400000BF80BD4803002000540040A086010077
:1017500080B58EB000AF07F1280300221A605A60EE
:101760009A60DA6007F1200300221A605A603B1D7C
:1017700000221A605A609A60DA601A615A619A61AE
:101780002C4B4FF080421A602A4B00225A60294BA2
:1017900000229A60274B0A22DA60264B00221A6147
:1017A000244B00229A61234802F01EFE0346002BC0
:1017B00001D000F00FF94FF48053BB6207F128030A
:1017C00019461C4803F000FB0346002B01D000F033
:1017D00001F9184802F0AAFE0346002B01D000F0E0
:1017E000F9F800233B6200237B6207F120031946CE
:1017F000104803F067FF0346002B01D000F0EAF821
:1018000060237B600023BB600023FB6000237B61BF
:101810003B1D00221946074803F014FA0346002B2B
:1018200001D000F0D7F8034800F012FA00BF3837B3
:10183000BD4680BDE403002080B586B000AF07F14F
:10184000080300221A605A609A60DA603B46002260
:101850001A605A601D4B1E4A1A601C4B41F63F72BB
:101860005A601A4B00229A60184B0922DA60174B13
:1018700000221A61154B00229A61144802F0B4FD4F
:101880000346002B01D000F0A5F84FF48053BB6055
:1018900007F1080319460D4803F096FA0346002B9A
:1018A00001D000F097F800233B6000237B603B46AB
:1018B0001946064803F006FF0346002B01D000F04E
:1018C00089F800BF1837BD4680BD00BF9C030020CB
:1018D0000004004080B500AF114B124A1A60104B53
:1018E0004FF4E1325A600E4B00229A600C4B0022FA
:1018F000DA600B4B00221A61094B0C225A61084B2B
:1019000000229A61064B0022DA61054803F04AFF83
:101910000346002B01D000F05DF800BF80BD00BF82
:101920002C0400200044004080B582B000AF0C4B76
:101930005B690B4A43F001035361094B5B6903F098
:1019400001037B607B68002200210F2000F0ADFCCA
:101950000F2000F0C6FC00BF0837BD4680BD00BFA9
:101960000010024080B485B000AF144B9B69134A4D
:1019700043F020039361114B9B6903F02003FB604C
:10198000FB680E4B9B690D4A43F0040393610B4BBC
:101990009B6903F00403BB60BB68084B9B69074A63
:1019A00043F008039361054B9B6903F008037B60D8
:1019B0007B6800BF1437BD4680BC704700100240F2
:1019C00080B582B000AF786000F026F800BF08371D
:1019D000BD4680BD80B400AF72B600BFFEE7000018
:1019E00080B483B000AF78607B68084A82FB031242
:1019F0009210DB17D31A064A1360064B00221A60B6
:101A000000BF0C37BD4680BC704700BF6766666686
:101A1000040200200802002080B400AF114B1B68B4
:101A2000002B0BDD0F4B1B68013B0E4A13600D4B67
:101A30001B68002B02DC0C4B01221A600B4B1B684D
:101A4000002B0BDD094B1B68013B084A1360074B59
:101A50001B68002B02DC064B01221A6000BFBD464A
:101A600080BC704704020020080200200C02002005
:101A70001002002080B584B000AF194B9B69184A52
:101A800043F001039361164B9B6903F00103BB60B4
:101A9000BB68134BDB69124A43F08053D361104B90
:101AA000DB6903F080537B607B6800220021052006
:101AB00000F0FBFB052000F014FC0A4B5B68FB60A8
:101AC000FB6823F0E063FB60FB6843F00073FB609E
:101AD000044AFB68536000BF1037BD4680BD00BF9D
:101AE000001002400000014080B58AB000AF78606D
:101AF00007F1140300221A605A609A60DA607B686A
:101B00001B681D4A934232D11C4B9B691B4A43F010
:101B100008039361194B9B6903F008033B613B6920
:101B20004FF440737B611223BB6103233B6207F1D7
:101B300014031946124800F091FE124B5B687B6259
:101B40007B6A43F0E0637B627B6A43F002037B6263
:101B50000C4A7B6A5360094BDB69084A43F4001363
:101B6000D361064BDB6903F40013FB60FB6800BF25
:101B70002837BD4680BD00BF005400400010024021
:101B8000000C01400000014080B584B000AF7860D7
:101B90007B681B68B3F1804F35D1294BDB69284A3C
:101BA00043F00103D361264BDB6903F00103FB60C3
:101BB000FB68244B244A1A60224B10225A60214BA6
:101BC00000229A601F4B8022DA601E4B4FF4807215
:101BD0001A611C4B4FF480625A611A4B00229A61C1
:101BE000184B4FF44052DA61164800F095FB03465B
:101BF000002B01D0FFF7EEFE7B68124A5A62114AB1
:101C00007B68536218E07B681B68104A934213D1CB
:101C10000B4BDB690A4A43F00203D361084BDB69D3
:101C200003F00203BB60BB68002200211D2000F00E
:101C30003CFB1D2000F055FB00BF1037BD4680BDAA
:101C4000001002400403002058000240000400403D
:101C500080B588B000AF786007F1100300221A60E9
:101C60005A609A60DA607B681B68B3F1804F17D1C5
:101C70000D4B9B690C4A43F0040393610A4B9B692B
:101C800003F00403FB60FB6801233B6102237B61DB
:101C90000223FB6107F110031946044800F0DEFD42
:101CA00000BF2037BD4680BD001002400008014043
:101CB00080B588B000AF786007F1100300221A6089
:101CC0005A609A60DA607B681B681F4A934237D17A
:101CD0001E4BDB691D4A43F40033D3611B4BDB69A8
:101CE00003F40033FB60FB68184B9B69174A43F011
:101CF00004039361154B9B6903F00403BB60BB684D
:101D000004233B6102237B610323FB6107F1100382
:101D100019460F4800F0A2FD08233B6100237B61B8
:101D20000023BB6107F110031946094800F096FD36
:101D300000220021262000F0B8FA262000F0D1FA77
:101D400000BF2037BD4680BD004400400010024067
:101D50000008014080B400AFFEE780B400AFFEE7AA
:101D600080B400AFFEE780B400AFFEE780B400AF00
:101D7000FEE780B400AF00BFBD4680BC704780B4B2
:101D800000AF00BFBD4680BC704780B400AF00BF4D
:101D9000BD4680BC704780B500AF00F06FF900BF52
:101DA00080BD80B400AF00BFBD4680BC704700005E
:101DB00080B500AF024800F01DFC00BF80BD00BF31
:101DC0000403002080B500AF024802F04BFE00BFC4
:101DD00080BD00BF9C03002080B500AF024803F027
:101DE000BDFD00BF80BD00BF2C04002080B400AF4B
:101DF00001231846BD4680BC704780B582B000AF55
:101E00007860396004F0E4FA034616221A604FF055
:101E1000FF3318460837BD4680BD80B582B000AF9D
:101E200078604FF0FF317868FFF7E7FFFEE780B595
:101E300086B000AFF860B9607A6000237B610AE089
:101E4000AFF300800146BB685A1CBA60CAB21A7070
:101E50007B6901337B617A697B689A42F0DB7B683E
:101E600018461837BD4680BD80B586B000AFF86013
:101E7000B9607A6000237B6109E0BB685A1CBA60D4
:101E80001B781846AFF300807B6901337B617A6968
:101E90007B689A42F1DB7B6818461837BD4680BDE7
:101EA00080B483B000AF78604FF0FF3318460C3732
:101EB000BD4680BC704780B483B000AF78603960A5
:101EC0003B684FF400525A60002318460C37BD4659
:101ED00080BC704780B483B000AF7860012318469F
:101EE0000C37BD4680BC704780B485B000AFF86049
:101EF000B9607A60002318461437BD4680BC70472D
:101F000080B586B000AF7860144A154BD31A7B6158
:101F10007B693B61134B1B68002B02D1114B124AAA
:101F20001A60104B1A687B6813443A699A4207D2C8
:101F300004F04EFA03460C221A604FF0FF3309E01A
:101F4000084B1B68FB60074B1A687B681344054A03
:101F50001360FB6818461837BD4680BD005000204E
:101F600000040000140200208804002080B400AFA8
:101F700000BFBD4680BC704780B582B000AF7860BE
:101F80007868FEF7E5F803469AB24FF47A737968F9
:101F9000034803F057FC034618460837BD4680BD8A
:101FA0002C040020FFF7E2FF0B480C490C4A0023E9
:101FB00002E0D458C4500433C4188C42F9D3094AFF
:101FC000094C002301E013600432A242FBD304F069
:101FD00005FAFFF71BFB704700000020DC01002022
:101FE000EC950008DC01002088040020FEE70000DA
:101FF00080B500AF084B1B68074A43F0100313601D
:10200000032000F047F90F2000F008F8FFF732FD39
:102010000023184680BD00BF0020024080B582B07A
:1020200000AF7860124B1A68124B1B7819464FF4B8
:102030007A73B3FBF1F3B2FBF3F3184600F05FF9E8
:102040000346002B01D001230EE07B680F2B0AD83A
:10205000002279684FF0FF3000F027F9064A7B68CC
:102060001360002300E0012318460837BD4680BDF9
:1020700000000020080000200400002080B400AF11
:10208000054B1B781A46054B1B681344034A136023
:1020900000BFBD4680BC70470800002074040020CB
:1020A00080B400AF024B1B681846BD4680BC704729
:1020B0007404002080B584B000AF7860FFF7F0FFB3
:1020C000B8607B68FB60FB68B3F1FF3F05D00A4B4B
:1020D0001B781A46FB681344FB6000BFFFF7E0FF64
:1020E0000246BB68D31AFA689A42F7D800BF00BF0D
:1020F0001037BD4680BD00BF0800002080B485B009
:1021000000AF78607B6803F00703FB600C4BDB6873
:10211000BB60BA684FF6FF031340BB60FB681A024E
:10212000BB68134343F0BF6343F40033BB60044A0E
:10213000BB68D36000BF1437BD4680BC704700BF8A
:1021400000ED00E080B400AF044BDB681B0A03F035
:1021500007031846BD4680BC704700BF00ED00E095
:1021600080B483B000AF0346FB7197F90730002BB2
:102170000BDBFB7903F01F02064997F907305B0977
:10218000012000FA02F241F8232000BF0C37BD46BF
:1021900080BC704700E100E080B483B000AF03462C
:1021A0003960FB7197F90730002B0ADB3B68DAB224
:1021B0000C4997F907301201D2B20B4483F800237F
:1021C0000AE03B68DAB20849FB7903F00F03043BED
:1021D0001201D2B20B441A7600BF0C37BD4680BC48
:1021E000704700BF00E100E000ED00E080B489B07E
:1021F00000AFF860B9607A60FB6803F00703FB6129
:10220000FB69C3F10703042B28BF0423BB61FB69EF
:102210000433062B02D9FB69033B00E000237B61FA
:102220004FF0FF32BB6902FA03F3DA43BB681A408E
:102230007B699A404FF0FF317B6901FA03F3D94380
:102240007B680B40134318462437BD4680BC70475B
:1022500080B582B000AF78607B68013BB3F1807FCE
:1022600001D301230FE00A4A7B68013B53600F2131
:102270004FF0FF30FFF790FF054B00229A60044BB0
:1022800007221A60002318460837BD4680BD00BFEC
:1022900010E000E080B582B000AF78607868FFF7AA
:1022A0002DFF00BF0837BD4680BD80B586B000AFAA
:1022B0000346B9607A60FB7300237B61FFF742FF3E
:1022C00078617A68B9687869FFF790FF024697F9F4
:1022D0000F3011461846FFF75FFF00BF1837BD46A5
:1022E00080BD80B582B000AF0346FB7197F907301F
:1022F0001846FFF735FF00BF0837BD4680BD80B5E3
:1023000082B000AF78607868FFF7A2FF03461846F6
:102310000837BD4680BD000080B485B000AF78604E
:102320000023FB607B68002B01D1012343E07B6825
:102330001B681A46224B1344224AA2FB03231B09A3
:102340009A007B681A647B681F4ADA637B68022202
:1023500083F821207B681B681B68FB60FB6823F403
:102360007F5323F03003FB607B685A687B689B686F
:102370001A437B68DB681A437B681B691A437B68D6
:102380005B691A437B689B691A437B68DB6913436B
:10239000FA681343FB607B681B68FA681A607B6805
:1023A00000229A637B68012283F821207B68002247
:1023B00083F82020002318461437BD4680BC7047A0
:1023C000F8FFFDBFCDCCCCCC0000024080B586B07C
:1023D00000AFF860B9607A603B600023FB75FB6872
:1023E00093F82030012B01D102234BE0FB6801223E
:1023F00083F82020FB6893F82130DBB2012B3AD11F
:10240000FB68022283F82120FB6800229A63FB68A4
:102410001B681A68FB681B6822F001021A603B689F
:102420007A68B968F86800F0EBF9FB68DB6A002BA2
:1024300008D0FB681B681A68FB681B6842F00E0234
:102440001A600FE0FB681B681A68FB681B6822F0C3
:1024500004021A60FB681B681A68FB681B6842F07C
:102460000A021A60FB681B681A68FB681B6842F066
:1024700001021A6005E0FB68002283F82020022395
:10248000FB75FB7D18461837BD4680BD80B485B00E
:1024900000AF78600023FB737B6893F82130DBB2D8
:1024A000022B08D07B6804229A637B68002283F8A1
:1024B0002020012320E07B681B681A687B681B686A
:1024C00022F00E021A607B681B681A687B681B6822
:1024D00022F001021A607B681A6C7B68DB6B0121B9
:1024E00001FA02F25A607B68012283F821207B689E
:1024F000002283F82020FB7B18461437BD4680BCA1
:102500007047000080B584B000AF78600023FB7393
:102510007B6893F82130DBB2022B05D07B68042264
:102520009A630123FB7351E07B681B681A687B6820
:102530001B6822F00E021A607B681B681A687B68B1
:102540001B6822F001021A607B681B68224A9342D2
:1025500029D07B681B68214A934222D07B681B6884
:102560001F4A93421AD07B681B681E4A934212D0BE
:102570007B681B681C4A93420AD07B681B681B4A15
:10258000934202D14FF480130EE04FF080730BE0C2
:102590004FF4803308E04FF4805305E04FF480732C
:1025A00002E0102300E00123114A53607B680122FE
:1025B00083F821207B68002283F820207B685B6BF6
:1025C000002B03D07B685B6B78689847FB7B1846D1
:1025D0001037BD4680BD00BF080002401C0002400D
:1025E0003000024044000240580002406C000240AB
:1025F0000000024080B584B000AF78607B68DB6B80
:102600001B68FB607B681B681B68BB607B681B6C7E
:1026100004229A40FB681340002B4FD0BB6803F0A4
:102620000403002B4AD07B681B681B6803F020035F
:10263000002B07D17B681B681A687B681B6822F037
:1026400004021A607B681B68664A934229D07B6843
:102650001B68654A934222D07B681B68634A934299
:102660001AD07B681B68624A934212D07B681B6851
:10267000604A93420AD07B681B685F4A934202D14A
:102680004FF480030EE04FF080630BE04FF48023A3
:1026900008E04FF4804305E04FF4806302E04023FC
:1026A00000E00423554A53607B68DB6A002B00F08E
:1026B00094807B68DB6A786898478EE07B681B6C47
:1026C00002229A40FB681340002B56D0BB6803F0EF
:1026D0000203002B51D07B681B681B6803F02003AA
:1026E000002B0BD17B681B681A687B681B6822F083
:1026F0000A021A607B68012283F821207B681B682C
:10270000384A934229D07B681B68374A934222D0CB
:102710007B681B68354A93421AD07B681B68344A31
:10272000934212D07B681B68324A93420AD07B687E
:102730001B68314A934202D14FF400130EE04FF070
:1027400000730BE04FF4003308E04FF4005305E052
:102750004FF4007302E0202300E00223274A536075
:102760007B68002283F820207B689B6A002B34D092
:102770007B689B6A786898472FE07B681B6C08220F
:102780009A40FB681340002B28D0BB6803F0080375
:10279000002B23D07B681B681A687B681B6822F0BB
:1027A0000E021A607B681A6C7B68DB6B012101FAF0
:1027B00002F25A607B6801229A637B68012283F8E7
:1027C00021207B68002283F820207B681B6B002B74
:1027D00004D07B681B6B7868984700BF00BF103738
:1027E000BD4680BD080002401C000240300002408F
:1027F00044000240580002406C00024000000240C9
:1028000080B485B000AFF860B9607A603B60FB6867
:102810001A6CFB68DB6B012101FA02F25A60FB685B
:102820001B683A685A60FB685B68102B08D1FB682C
:102830001B687A689A60FB681B68BA68DA6007E010
:10284000FB681B68BA689A60FB681B687A68DA6084
:1028500000BF1437BD4680BC7047000080B48BB009
:1028600000AF7860396000237B6200233B6269E13E
:1028700001227B6A02FA03F3FB613B681B68FA6979
:102880001340BB61BA69FB699A4240F058813B68CA
:102890005B689A4A93425ED0984A934275D8984AA8
:1028A000934258D0964A93426FD8964A934252D058
:1028B000944A934269D8944A93424CD0924A9342A4
:1028C00063D8924A934246D0904A93425DD8122BE5
:1028D0002AD8122B59D801A252F823F05729000800
:1028E0003129000843290008852900088B290008A0
:1028F0008B2900088B2900088B2900088B290008E8
:102900008B2900088B2900088B2900088B290008D7
:102910008B2900088B2900088B2900088B290008C7
:10292000392900084D290008794A934213D02CE038
:102930003B68DB683B6229E03B68DB6804333B6251
:1029400024E03B68DB6808333B621FE03B68DB68E0
:102950000C333B621AE03B689B68002B02D10423D6
:102960003B6213E03B689B68012B05D108233B6267
:102970007B68FA691A6109E008233B627B68FA699F
:102980005A6103E000233B6200E000BFBB69FF2BFC
:1029900001D87B6801E07B6804337B61BB69FF2B56
:1029A00002D87B6A9B0002E07B6A083B9B003B618C
:1029B0007B691A680F213B6901FA03F3DB431A4074
:1029C000396A3B6901FA03F31A437B691A603B6871
:1029D0005B6803F08053002B00F0B1804D4B9B6986
:1029E0004C4A43F0010393614A4B9B6903F0010396
:1029F000BB60BB68484A7B6A9B08023352F82330AD
:102A0000FB607B6A03F003039B000F2202FA03F3CF
:102A1000DB43FA681340FB607B68404A934213D063
:102A20007B683F4A93420DD07B683E4A934207D071
:102A30007B683D4A934201D1032306E0042304E06E
:102A4000022302E0012300E000237A6A02F003027D
:102A500092009340FA681343FB602F497B6A9B08FE
:102A60000233FA6841F823203B685B6803F4801363
:102A7000002B06D02D4B9A682C49BB6913438B6001
:102A800006E02A4B9A68BB69DB43284913408B60F8
:102A90003B685B6803F40013002B06D0234BDA6815
:102AA0002249BB691343CB6006E0204BDA68BB695F
:102AB000DB431E491340CB603B685B6803F4003383
:102AC000002B06D0194B5A681849BB6913434B6059
:102AD00006E0164B5A68BB69DB43144913404B6050
:102AE0003B685B6803F48033002B21D00F4B1A68DE
:102AF0000E49BB6913430B6021E000BF0000321098
:102B000000003110000022100000211000001210FF
:102B100000001110001002400000014000080140B8
:102B2000000C01400010014000140140000401406D
:102B30000B4B1A68BB69DB43094913400B607B6A86
:102B400001337B623B681A687B6A22FA03F3002B2D
:102B50007FF48EAE00BF00BF2C37BD4680BC7047EF
:102B60000004014080B584B000AF78607B68002B22
:102B700001D101232BE17B6893F83D30DBB2002BC0
:102B800006D17B68002283F83C207868FEF7ACFF12
:102B90007B68242283F83D207B681B681A687B6869
:102BA0001B6822F001021A607B681B681A687B6848
:102BB0001B6842F400421A607B681B681A687B68D5
:102BC0001B6822F400421A6001F0C8FBF8607B68C1
:102BD0005B68814A934207D8FB68804A934294BF5E
:102BE00001230023DBB206E0FB687D4A934294BFD9
:102BF00001230023DBB2002B01D00123E7E0FB68B7
:102C0000784AA2FB03239B0CBB607B681B685B6854
:102C100023F03F017B681B68BA680A435A607B68EF
:102C20001B681B6A23F03F017B685B686A4A93421A
:102C300002D8BB68013309E0BB684FF4967202FB0F
:102C400003F3694AA2FB03239B0901337A681268E4
:102C50000B4313627B681B68DB6923F44F4222F04D
:102C6000FF027B685B685C498B4219D8FB68591E80
:102C70007B685B685B00B1FBF3F3591C40F6FC73A7
:102C80000B40002B0AD0FB68591E7B685B685B0019
:102C9000B1FBF3F30133C3F30B0351E004234FE023
:102CA0007B689B68002B11D1FB68581E7B685968B4
:102CB0000B465B000B44B0FBF3F30133C3F30B0390
:102CC000002B0CBF01230023DBB212E0FB68581E6F
:102CD0007B6859680B469B000B4499000B44B0FB82
:102CE000F3F30133C3F30B03002B0CBF01230023C9
:102CF000DBB2002B01D0012322E07B689B68002B14
:102D00000ED1FB68581E7B6859680B465B000B446C
:102D1000B0FBF3F30133C3F30B0343F400430FE0C1
:102D2000FB68581E7B6859680B469B000B44990052
:102D30000B44B0FBF3F30133C3F30B0343F4404301
:102D4000796809681343CB617B681B681B6823F0B3
:102D5000C0017B68DA697B681B6A1A437B681B6861
:102D60000A431A607B681B689B6823F4034323F0C3
:102D7000FF037A6811697A68D26811437A68126829
:102D80000B4393607B681B68DB6823F0FF017B6863
:102D90005A697B689B691A437B681B680A43DA603F
:102DA0007B681B681A687B681B6842F001021A6026
:102DB0007B6800221A647B68202283F83D207B68B0
:102DC00000221A637B68002283F83E200023184605
:102DD0001037BD4680BD00BFA08601007F841E0065
:102DE000FF083D0083DE1B43D34D621080B588B0E1
:102DF00002AFF8607A601A460B467B8113463B812E
:102E0000FFF74EF97861FB6893F83D30DBB2202B79
:102E100040F0E0807B690093192301227049F86833
:102E200000F09EFC0346002B01D00223D3E0FB6898
:102E300093F83C30012B01D10223CCE0FB68012246
:102E400083F83C20FB681B681B6803F00103012B1F
:102E500007D0FB681B681A68FB681B6842F0010218
:102E60001A60FB681B681A68FB681B6822F4006222
:102E70001A60FB68212283F83D20FB68102283F84A
:102E80003E20FB6800221A64FB687A685A62FB687D
:102E90003A895A85FB685B8D9AB2FB681A85FB6894
:102EA000504ADA6279897B693A6AF86800F008FB6F
:102EB0000346002B01D001238DE000233B61FB681A
:102EC0001B685B693B61FB681B689B693B613B69F5
:102ED00066E07A69396AF86800F05CFD0346002B09
:102EE0000DD0FB681B6C042B07D1FB681B681A68AC
:102EF000FB681B6842F400721A6001236BE0FB68F8
:102F00005B6A1A78FB681B681A61FB685B6A5A1C6B
:102F1000FB685A62FB685B8D9BB2013B9AB2FB680F
:102F20005A85FB681B8D013B9AB2FB681A85FB68CA
:102F30001B685B6903F00403042B1BD1FB681B8D2A
:102F4000002B17D0FB685B6A1A78FB681B681A6154
:102F5000FB685B6A5A1CFB685A62FB685B8D9BB21C
:102F6000013B9AB2FB685A85FB681B8D013B9AB204
:102F7000FB681A857A69396AF86800F053FD0346E0
:102F8000002B0DD0FB681B6C042B07D1FB681B6862
:102F90001A68FB681B6842F400721A6001231AE089
:102FA000FB681B8D002B94D1FB681B681A68FB68BB
:102FB0001B6842F400721A60FB68202283F83D20EF
:102FC000FB68002283F83E20FB68002283F83C2047
:102FD000002300E0022318461837BD4680BD00BF1D
:102FE000020010000000FFFF80B58CB002AFF86057
:102FF0007A601A460B467B8113463B8100233B6275
:10300000FFF74EF87862FB6893F83D30DBB2202B77
:1030100040F04B827B6A0093192301227F49F868B4
:1030200000F09EFB0346002B01D002233EE2FB682A
:1030300093F83C30012B01D1022337E2FB680122D7
:1030400083F83C20FB681B681B6803F00103012B1D
:1030500007D0FB681B681A68FB681B6842F0010216
:103060001A60FB681B681A68FB681B6822F4006220
:103070001A60FB68222283F83D20FB68102283F847
:103080003E20FB6800221A64FB687A685A62FB687B
:103090003A895A85FB685B8D9AB2FB681A85FB6892
:1030A0005F4ADA6279897B6A3A6BF86800F08AFADB
:1030B0000346002B01D00123F8E1FB681B8D002B98
:1030C00013D10023FB61FB681B685B69FB61FB6834
:1030D0001B689B69FB61FB69FB681B681A68FB68DE
:1030E0001B6842F400721A60CCE1FB681B8D012B57
:1030F0001ED1FB681B681A68FB681B6822F480629B
:103100001A6072B600BF0023BB61FB681B685B6975
:10311000BB61FB681B689B69BB61BB69FB681B6883
:103120001A68FB681B6842F400721A6062B635E0E8
:10313000FB681B8D022B1ED1FB681B681A68FB689D
:103140001B6842F400621A6072B600BF00237B6104
:10315000FB681B685B697B61FB681B689B697B6123
:103160007B69FB681B681A68FB681B6822F4806235
:103170001A6062B612E0FB681B681A68FB681B687D
:1031800042F480621A6000233B61FB681B685B6944
:103190003B61FB681B689B693B613B6972E1FB68B3
:1031A0001B8D032B00F21F81FB681B8D012B23D18C
:1031B0007A6A396BF86800F07DFC0346002B01D079
:1031C000012373E1FB681B681A69FB685B6AD2B272
:1031D0001A70FB685B6A5A1CFB685A62FB681B8D9D
:1031E000013B9AB2FB681A85FB685B8D9BB2013B81
:1031F0009AB2FB685A8545E1FB681B8D022B52D1C0
:103200007B6A00933B6B00220649F86800F0A8FA3D
:103210000346002B08D0012348E100BF0200100044
:103220000000FFFF0400010072B600BFFB681B68CE
:103230001A68FB681B6842F400721A60FB681B681E
:103240001A69FB685B6AD2B21A70FB685B6A5A1C27
:10325000FB685A62FB681B8D013B9AB2FB681A85BA
:10326000FB685B8D9BB2013B9AB2FB685A8562B6E4
:1032700000BFFB681B681A69FB685B6AD2B21A70F0
:10328000FB685B6A5A1CFB685A62FB681B8D013B3A
:103290009AB2FB681A85FB685B8D9BB2013B9AB2C0
:1032A000FB685A85EEE07B6A00933B6B0022814904
:1032B000F86800F055FA0346002B01D00123F5E031
:1032C000FB681B681A68FB681B6822F480621A603E
:1032D00072B600BFFB681B681A69FB685B6AD2B2F2
:1032E0001A70FB685B6A5A1CFB685A62FB681B8D8C
:1032F000013B9AB2FB681A85FB685B8D9BB2013B70
:103300009AB2FB685A856C4B1B68DB086B4AA2FBC0
:1033100003231A0A13469B001344DA00D31A3B62B4
:103320003B6A013B3B623B6A002B18D1FB680022E1
:103330001A63FB68202283F83D20FB68002283F893
:103340003E20FB681B6C43F02002FB681A6462B6E7
:1033500000BFFB68002283F83C200123A6E0FB6845
:103360001B685B6903F00403042BD9D1FB681B685D
:103370001A68FB681B6842F400721A60FB681B68DD
:103380001A69FB685B6AD2B21A70FB685B6A5A1CE6
:10339000FB685A62FB681B8D013B9AB2FB681A8579
:1033A000FB685B8D9BB2013B9AB2FB685A8562B6A3
:1033B00000BFFB681B681A69FB685B6AD2B21A70AF
:1033C000FB685B6A5A1CFB685A62FB681B8D013BF9
:1033D0009AB2FB681A85FB685B8D9BB2013B9AB27F
:1033E000FB685A854EE07A6A396BF86800F062FB38
:1033F0000346002B01D0012358E0FB681B681A69C3
:10340000FB685B6AD2B21A70FB685B6A5A1CFB6885
:103410005A62FB681B8D013B9AB2FB681A85FB68F8
:103420005B8D9BB2013B9AB2FB685A85FB681B68B7
:103430005B6903F00403042B24D1FB681B8D032B71
:1034400007D1FB681B681A68FB681B6822F480625E
:103450001A60FB681B681A69FB685B6AD2B21A7053
:10346000FB685B6A5A1CFB685A62FB681B8D013B58
:103470009AB2FB681A85FB685B8D9BB2013B9AB2DE
:10348000FB685A85FB681B8D002B7FF488AEFB68B8
:10349000202283F83D20FB68002283F83E20FB6851
:1034A000002283F83C20002300E00223184628373E
:1034B000BD4680BD040001000000002089B5F8145D
:1034C00080B588B002AFF8607A603B600B467B81C4
:1034D000FB68DB6A7B617B69082B06D07B69012B6B
:1034E00003D07B6913F5803F08D1FB681B681A681D
:1034F000FB681B6842F480721A600BE0FB681B6B70
:10350000122B07D1FB681B681A68FB681B6842F422
:1035100080721A603B6800937B6800224FF00111B3
:10352000F86800F01DF90346002B0DD0FB681B68FE
:103530001B6803F48073B3F5807F03D1FB684FF4FD
:1035400000721A64032335E0FB681B69B3F5804FF2
:1035500008D17B89DBB21A46FB681B6802F0FE02C9
:103560001A611BE07B89DB11DBB203F00603DBB2DF
:1035700063F00F03DAB2FB681B681A613B687A6874
:103580000E49F86800F066F90346002B01D00123CC
:1035900010E07B89DAB2FB681B681A613B687A68C5
:1035A0000749F86800F056F90346002B01D00123C3
:1035B00000E0002318461837BD4680BD0800010012
:1035C0000200010080B588B002AFF8607A603B600D
:1035D0000B467B81FB68DB6A7B61FB681B681A68B2
:1035E000FB681B6842F480621A607B69082B06D076
:1035F0007B69012B03D07B6913F5803F08D1FB6801
:103600001B681A68FB681B6842F480721A600BE042
:10361000FB681B6B112B07D1FB681B681A68FB68E2
:103620001B6842F480721A603B6800937B6800223A
:103630004FF00111F86800F093F80346002B0DD00D
:10364000FB681B681B6803F48073B3F5807F03D1AC
:10365000FB684FF400721A64032379E0FB681B696E
:10366000B3F5804F08D17B89DBB243F00103DAB2B6
:10367000FB681B681A615FE07B89DB11DBB203F03A
:103680000603DBB263F00F03DAB2FB681B681A6152
:103690003B687A683049F86800F0DCF80346002B94
:1036A00001D0012354E07B89DAB2FB681B681A6100
:1036B0003B687A682949F86800F0CCF80346002B8B
:1036C00001D0012344E000233B61FB681B685B6978
:1036D0003B61FB681B689B693B613B69FB681B683E
:1036E0001A68FB681B6842F480721A603B6800939A
:1036F0007B6800224FF00111F86800F031F80346B2
:10370000002B0DD0FB681B681B6803F48073B3F5B6
:10371000807F03D1FB684FF400721A64032317E023
:103720007B89DB11DBB203F00603DBB263F00E032F
:10373000DAB2FB681B681A613B687A680749F86867
:1037400000F088F80346002B01D0012300E000239D
:1037500018461837BD4680BD080001000200010070
:1037600080B584B000AFF860B9603B601346FB7170
:1037700048E03B68B3F1FF3F44D0FEF791FC0246BE
:10378000BB69D31A3A689A4202D33B68002B39D1FD
:10379000BB681B0CDBB2012B0DD1FB681B685B699E
:1037A000DA43BB6813409BB2002B0CBF01230023FC
:1037B000DBB21A460CE0FB681B689B69DA43BB6806
:1037C00013409BB2002B0CBF01230023DBB21A462F
:1037D000FB799A4216D1FB6800221A63FB6820220B
:1037E00083F83D20FB68002283F83E20FB681B6CB9
:1037F00043F02002FB681A64FB68002283F83C2037
:10380000012323E0BB681B0CDBB2012B0DD1FB684D
:103810001B685B69DA43BB6813409BB2002B0CBF8B
:1038200001230023DBB21A460CE0FB681B689B698E
:10383000DA43BB6813409BB2002B0CBF012300236B
:10384000DBB21A46FB799A4293D000231846103710
:10385000BD4680BD80B584B000AFF860B9607A60C5
:103860003B6071E0FB681B685B6903F48063B3F540
:10387000806F23D1FB681B681A68FB681B6842F4E1
:1038800000721A60FB681B686FF480625A61FB6803
:1038900000221A63FB68202283F83D20FB68002287
:1038A00083F83E20FB681B6C43F00402FB681A643B
:1038B000FB68002283F83C20012367E07B68B3F1BA
:1038C000FF3F41D0FEF7ECFB02463B68D31A7A6813
:1038D0009A4202D37B68002B36D1BB681B0CDBB24B
:1038E000012B0CD1FB681B685B69DA43BB68134092
:1038F0009BB2002B14BF01230023DBB20BE0FB685B
:103900001B689B69DA43BB6813409BB2002B14BF52
:1039100001230023DBB2002B16D0FB6800221A63C0
:10392000FB68202283F83D20FB68002283F83E20BC
:10393000FB681B6C43F02002FB681A64FB680022E2
:1039400083F83C20012321E0BB681B0CDBB2012B78
:103950000CD1FB681B685B69DA43BB6813409BB200
:10396000002B14BF01230023DBB20BE0FB681B68B4
:103970009B69DA43BB6813409BB2002B14BF012341
:103980000023DBB2002B7FF46DAF00231846103705
:10399000BD4680BD80B584B000AFF860B9607A6084
:1039A00034E0F86800F0E3F80346002B01D001236F
:1039B00034E0BB68B3F1FF3F28D0FEF771FB02464D
:1039C0007B68D31ABA689A4202D3BB68002B1DD118
:1039D000FB681B685B6903F08003802B16D0FB68D3
:1039E00000221A63FB68202283F83D20FB68002236
:1039F00083F83E20FB681B6C43F02002FB681A64CE
:103A0000FB68002283F83C20012307E0FB681B6869
:103A10005B6903F08003802BC3D100231846103765
:103A2000BD4680BD80B584B000AFF860B9607A60F3
:103A300034E0F86800F09BF80346002B01D0012326
:103A400034E0BB68B3F1FF3F28D0FEF729FB024604
:103A50007B68D31ABA689A4202D3BB68002B1DD187
:103A6000FB681B685B6903F00403042B16D0FB683A
:103A700000221A63FB68202283F83D20FB680022A5
:103A800083F83E20FB681B6C43F02002FB681A643D
:103A9000FB68002283F83C20012307E0FB681B68D9
:103AA0005B6903F00403042BC3D1002318461037CD
:103AB000BD4680BD80B584B000AFF860B9607A6063
:103AC00049E0FB681B685B6903F01003102B19D1F8
:103AD000FB681B686FF010025A61FB6800221A63D2
:103AE000FB68202283F83D20FB68002283F83E20FB
:103AF000FB681A6CFB681A64FB68002283F83C20A0
:103B0000012330E0FEF7CCFA02467B68D31ABA688C
:103B10009A4202D3BB68002B1DD1FB681B685B690E
:103B200003F04003402B16D0FB6800221A63FB68A9
:103B3000202283F83D20FB68002283F83E20FB68AA
:103B40001B6C43F02002FB681A64FB68002283F8B8
:103B50003C20012307E0FB681B685B6903F040031E
:103B6000402BAED1002318461037BD4680BD80B42F
:103B700083B000AF78607B681B685B6903F4806387
:103B8000B3F5806F1BD17B681B686FF480625A614C
:103B90007B6800221A637B68202283F83D207B68C3
:103BA000002283F83E207B681B6C43F004027B6894
:103BB0001A647B68002283F83C20012300E0002384
:103BC00018460C37BD4680BC7047000080B586B0F3
:103BD00000AF78607B68002B01D101236CE27B6829
:103BE0001B6803F00103002B00F08780924B5B6899
:103BF00003F00C03042B0CD08F4B5B6803F00C0319
:103C0000082B12D18C4B5B6803F48033B3F5803FF3
:103C10000BD1894B1B6803F40033002B6CD07B68FD
:103C20005B68002B68D1012346E27B685B68B3F5D3
:103C3000803F06D1804B1B687F4A43F4803313607A
:103C40002EE07B685B68002B0CD17B4B1B687A4AAB
:103C500023F480331360784B1B68774A23F4802366
:103C600013601DE07B685B68B3F5A02F0CD1724B2D
:103C70001B68714A43F4802313606F4B1B686E4AC4
:103C800043F4803313600BE06B4B1B686A4A23F4E8
:103C900080331360684B1B68674A23F480231360EA
:103CA0007B685B68002B13D0FEF7FAF9386108E0F7
:103CB000FEF7F6F902463B69D31A642B01D90323B8
:103CC000FAE15D4B1B6803F40033002BF0D014E0E5
:103CD000FEF7E6F9386108E0FEF7E2F902463B69D3
:103CE000D31A642B01D90323E6E1534B1B6803F479
:103CF0000033002BF0D100E000BF7B681B6803F0AD
:103D00000203002B63D04C4B5B6803F00C03002BC9
:103D10000BD0494B5B6803F00C03082B1CD1464BBE
:103D20005B6803F48033002B16D1434B1B6803F010
:103D30000203002B05D07B681B69012B01D00123F6
:103D4000BAE13D4B1B6823F0F8027B685B69DB003E
:103D5000394913430B603AE07B681B69002B20D084
:103D6000364B01221A60FEF79BF9386108E0FEF736
:103D700097F902463B69D31A022B01D903239BE131
:103D80002D4B1B6803F00203002BF0D02A4B1B685D
:103D900023F0F8027B685B69DB00274913430B6063
:103DA00015E0264B00221A60FEF77AF9386108E028
:103DB000FEF776F902463B69D31A022B01D9032399
:103DC0007AE11D4B1B6803F00203002BF0D17B68E6
:103DD0001B6803F00803002B3AD07B689B69002B1B
:103DE00019D0174B01221A60FEF75AF9386108E022
:103DF000FEF756F902463B69D31A022B01D9032379
:103E00005AE10D4B5B6A03F00203002BF0D0012056
:103E100000F0CCFA1CE00A4B00221A60FEF740F9D1
:103E200038610FE0FEF73CF902463B69D31A022BDA
:103E300008D9032340E100BF0010024000004242C5
:103E4000800442429E4B5B6A03F00203002BE9D1DF
:103E50007B681B6803F00403002B00F0A68000239E
:103E6000FB75974BDB6903F08053002B0DD1944B0E
:103E7000DB69934A43F08053D361914BDB6903F0D4
:103E80008053BB60BB680123FB758E4B1B6803F43A
:103E90008073002B18D18B4B1B688A4A43F48073C4
:103EA0001360FEF7FDF8386108E0FEF7F9F8024606
:103EB0003B69D31A642B01D90323FDE0814B1B68B6
:103EC00003F48073002BF0D07B68DB68012B06D1F4
:103ED0007B4B1B6A7A4A43F0010313622DE07B6837
:103EE000DB68002B0CD1764B1B6A754A23F001036B
:103EF0001362734B1B6A724A23F0040313621CE0C3
:103F00007B68DB68052B0CD16D4B1B6A6C4A43F058
:103F1000040313626A4B1B6A694A43F0010313628C
:103F20000BE0674B1B6A664A23F001031362644B84
:103F30001B6A634A23F0040313627B68DB68002B6F
:103F400015D0FEF7ADF838610AE0FEF7A9F8024691
:103F50003B69D31A41F28832934201D90323ABE083
:103F6000574B1B6A03F00203002BEED014E0FEF760
:103F700097F838610AE0FEF793F802463B69D31AD6
:103F800041F28832934201D9032395E04C4B1B6ADE
:103F900003F00203002BEED1FB7D012B05D1484B32
:103FA000DB69474A23F08053D3617B68DB69002BD0
:103FB00000F08180424B5B6803F00C03082B61D05A
:103FC0007B68DB69022B46D13F4B00221A60FEF76B
:103FD00067F8386108E0FEF763F802463B69D31AD8
:103FE000022B01D9032367E0354B1B6803F00073F4
:103FF000002BF0D17B681B6AB3F5803F08D1304BB2
:104000005B6823F400327B689B682D4913434B6047
:104010002B4B5B6823F474127B68196A7B685B6ABC
:104020000B43274913434B60274B01221A60FEF7CD
:1040300037F8386108E0FEF733F802463B69D31AD7
:10404000022B01D9032337E01D4B1B6803F00073DB
:10405000002BF0D02FE01C4B00221A60FEF720F856
:10406000386108E0FEF71CF802463B69D31A022BC0
:1040700001D9032320E0124B1B6803F00073002BCF
:10408000F0D118E07B68DB69012B01D1012313E03B
:104090000B4B5B68FB60FB6803F480327B681B6A38
:1040A0009A4206D1FB6803F470127B685B6A9A42FD
:1040B00001D0012300E0002318461837BD4680BD1B
:1040C00000100240007000406000424280B584B0A1
:1040D00000AF786039607B68002B01D10123D0E00C
:1040E0006A4B1B6803F007033A689A4210D9674B82
:1040F0001B6823F0070265493B6813430B60634B61
:104100001B6803F007033A689A4201D00123B8E024
:104110007B681B6803F00203002B20D07B681B68C0
:1041200003F00403002B05D0594B5B68584A43F455
:10413000E06353607B681B6803F00803002B05D025
:10414000534B5B68524A43F460535360504B5B6877
:1041500023F0F0027B689B684D4913434B607B68FA
:104160001B6803F00103002B40D07B685B68012BC8
:1041700007D1474B1B6803F40033002B15D10123F3
:104180007FE07B685B68022B07D1414B1B6803F023
:104190000073002B09D1012373E03D4B1B6803F032
:1041A0000203002B01D101236BE0394B5B6823F044
:1041B00003027B685B68364913434B60FDF770FF71
:1041C000F8600AE0FDF76CFF0246FB68D31A41F283
:1041D0008832934201D9032353E02D4B5B6803F0EF
:1041E0000C027B685B689B009A42EBD1274B1B68F3
:1041F00003F007033A689A4210D2244B1B6823F05D
:10420000070222493B6813430B60204B1B6803F0F5
:1042100007033A689A4201D0012332E07B681B68A9
:1042200003F00403002B08D0194B5B6823F4E06211
:104230007B68DB68164913434B607B681B6803F09F
:104240000803002B09D0124B5B6823F460527B6893
:104250001B69DB000E4913434B6000F021F8024656
:104260000B4B5B681B0903F00F030A49CB5C22FA76
:1042700003F3094A1360094B1B681846FDF7CEFE8D
:10428000002318461037BD4680BD00BF0020024005
:1042900000100240D8910008000000200400002017
:1042A00080B487B000AF0023FB600023BB60002315
:1042B0007B6100237B6000233B611E4B5B68FB60DE
:1042C000FB6803F00C03042B02D0082B03D027E07B
:1042D000194B3B6127E0FB689B0C03F00F03174A67
:1042E000D35C7B60FB6803F48033002B10D0114B50
:1042F0005B685B0C03F00103114AD35CBB607B6815
:104300000D4A02FB03F2BB68B2FBF3F37B6104E0EE
:104310007B680C4A02FB03F37B617B693B6102E033
:10432000054B3B6100BF3B6918461C37BD4680BC4E
:10433000704700BF0010024000127A00F0910008A0
:104340000092000800093D0080B400AF024B1B68DA
:104350001846BD4680BC70470000002080B500AF05
:10436000FFF7F2FF0246054B5B681B0A03F00703E9
:104370000349CB5C22FA03F3184680BD00100240CB
:10438000E891000880B500AFFFF7DEFF0246054B5D
:104390005B68DB0A03F007030349CB5C22FA03F3F3
:1043A000184680BD00100240E891000880B485B036
:1043B00000AF78600A4B1B680A4AA2FB03235B0A22
:1043C0007A6802FB03F3FB6000BFFB685A1EFA60C9
:1043D000002BF9D100BF00BF1437BD4680BC704729
:1043E00000000020D34D621080B582B000AF78602D
:1043F0007B68002B01D1012341E07B6893F83D30BD
:10440000DBB2002B06D17B68002283F83C20786861
:10441000FDF7BAFB7B68022283F83D207B681A68AF
:104420007B6804331946104600F09CFE7B6801222D
:1044300083F846207B68012283F83E207B680122B6
:1044400083F83F207B68012283F840207B680122AB
:1044500083F841207B68012283F842207B68012297
:1044600083F843207B68012283F844207B68012283
:1044700083F845207B68012283F83D2000231846FD
:104480000837BD4680BD000080B485B000AF7860BD
:104490007B6893F83D30DBB2012B01D001233AE079
:1044A0007B68022283F83D207B681B68DA687B68A2
:1044B0001B6842F00102DA607B681B68184A93426D
:1044C0000ED07B681B68B3F1804F09D07B681B68F6
:1044D000144A934204D07B681B68134A934211D15B
:1044E0007B681B689B6803F00703FB60FB68062B77
:1044F00010D07B681B681A687B681B6842F0010259
:104500001A6007E07B681B681A687B681B6842F0CA
:1045100001021A60002318461437BD4680BC70475C
:10452000002C0140000400400008004080B582B02B
:1045300000AF78607B68002B01D1012341E07B68EC
:1045400093F83D30DBB2002B06D17B68002283F864
:104550003C20786800F039F87B68022283F83D201F
:104560007B681A687B6804331946104600F0FAFD30
:104570007B68012283F846207B68012283F83E2075
:104580007B68012283F83F207B68012283F840206A
:104590007B68012283F841207B68012283F8422056
:1045A0007B68012283F843207B68012283F8442042
:1045B0007B68012283F845207B68012283F83D2037
:1045C000002318460837BD4680BD80B483B000AFD5
:1045D000786000BF0C37BD4680BC704780B584B0A2
:1045E00000AF786039603B68002B09D17B6893F895
:1045F0003E30DBB2012B14BF01230023DBB222E0EB
:104600003B68042B09D17B6893F83F30DBB2012B68
:1046100014BF01230023DBB215E03B68082B09D14E
:104620007B6893F84030DBB2012B14BF01230023D9
:10463000DBB208E07B6893F84130DBB2012B14BF9A
:1046400001230023DBB2002B01D001235EE03B6895
:10465000002B04D17B68022283F83E2013E03B68E4
:10466000042B04D17B68022283F83F200BE03B68D7
:10467000082B04D17B68022283F8402003E07B688A
:10468000022283F841207B681B68012239681846A2
:1046900000F0F4FF7B681B681E4A934207D17B68D9
:1046A0001B685A6C7B681B6842F400425A647B6842
:1046B0001B68184A93420ED07B681B68B3F1804F89
:1046C00009D07B681B68144A934204D07B681B683E
:1046D000124A934211D17B681B689B6803F0070361
:1046E000FB60FB68062B10D07B681B681A687B6830
:1046F0001B6842F001021A6007E07B681B681A68B9
:104700007B681B6842F001021A60002318461037CC
:10471000BD4680BD002C0140000400400008004060
:1047200080B586B000AFF860B9607A607B80002306
:10473000FB75BB68002B09D1FB6893F83E30DBB2F8
:10474000022B0CBF01230023DBB222E0BB68042B49
:1047500009D1FB6893F83F30DBB2022B0CBF012379
:104760000023DBB215E0BB68082B09D1FB6893F886
:104770004030DBB2022B0CBF01230023DBB208E088
:10478000FB6893F84130DBB2022B0CBF01230023FE
:10479000DBB2002B01D0022353E1BB68002B09D10F
:1047A000FB6893F83E30DBB2012B0CBF01230023E2
:1047B000DBB222E0BB68042B09D1FB6893F83F30E1
:1047C000DBB2012B0CBF01230023DBB215E0BB6879
:1047D000082B09D1FB6893F84030DBB2012B0CBFEA
:1047E00001230023DBB208E0FB6893F84130DBB221
:1047F000012B0CBF01230023DBB2002B24D07B68EC
:10480000002B02D07B88002B01D1012319E1BB686A
:10481000002B04D1FB68022283F83E2016E0BB681F
:10482000042B04D1FB68022283F83F200EE0BB6812
:10483000082B04D1FB68022283F8402006E0FB68C5
:10484000022283F8412001E00123FAE0BB680C2B2F
:1048500000F2AE8001A252F823F000BF9148000898
:10486000B1490008B1490008B1490008D948000819
:10487000B1490008B1490008B149000821490008C0
:10488000B1490008B1490008B14900086949000868
:10489000FB685B6A6D4A9A62FB685B6A6C4ADA6223
:1048A000FB685B6A6B4A1A63FB68586A7968FB6845
:1048B0001B6834331A467B88FDF788FD0346002BBE
:1048C00001D00123BDE0FB681B68DA68FB681B6848
:1048D00042F40072DA606EE0FB689B6A5B4A9A629F
:1048E000FB689B6A5A4ADA62FB689B6A594A1A63F8
:1048F000FB68986A7968FB681B6838331A467B88BE
:10490000FDF764FD0346002B01D0012399E0FB680D
:104910001B68DA68FB681B6842F48062DA604AE070
:10492000FB68DB6A494A9A62FB68DB6A484ADA62DA
:10493000FB68DB6A474A1A63FB68D86A7968FB68D8
:104940001B683C331A467B88FDF740FD0346002B6D
:1049500001D0012375E0FB681B68DA68FB681B68FF
:1049600042F40062DA6026E0FB681B6B374A9A6209
:10497000FB681B6B364ADA62FB681B6B354A1A63AD
:10498000FB68186B7968FB681B6840331A467B88A4
:10499000FDF71CFD0346002B01D0012351E0FB680D
:1049A0001B68DA68FB681B6842F48052DA6002E038
:1049B0000123FB7500BFFB7D002B41D1FB681B6809
:1049C0000122B968184600F059FEFB681B68224AAC
:1049D000934207D1FB681B685A6CFB681B6842F462
:1049E00000425A64FB681B681B4A93420ED0FB6866
:1049F0001B68B3F1804F09D0FB681B68174A9342CC
:104A000004D0FB681B68164A934211D1FB681B68EF
:104A10009B6803F007033B613B69062B10D0FB68E2
:104A20001B681A68FB681B6842F001021A6007E005
:104A3000FB681B681A68FB681B6842F001021A6079
:104A4000FB7D18461837BD4680BD00BF5550000895
:104A5000FD500008C34F0008002C01400004004036
:104A60000008004080B584B000AF78607B681B68A8
:104A7000DB68FB607B681B681B69BB60BB6803F07D
:104A80000203002B20D0FB6803F00203002B1BD095
:104A90007B681B686FF002021A617B6801221A773B
:104AA0007B681B689B6903F00303002B03D07868C5
:104AB00000F05AFA05E0786800F04DFA786800F0E6
:104AC0005CFA7B6800221A77BB6803F00403002BB2
:104AD00020D0FB6803F00403002B1BD07B681B680D
:104AE0006FF004021A617B6802221A777B681B68E8
:104AF0009B6903F44073002B03D0786800F034FA0C
:104B000005E0786800F027FA786800F036FA7B68EC
:104B100000221A77BB6803F00803002B20D0FB6843
:104B200003F00803002B1BD07B681B686FF00802A2
:104B30001A617B6804221A777B681B68DB6903F0C3
:104B40000303002B03D0786800F00EFA05E07868C4
:104B500000F001FA786800F010FA7B6800221A77FA
:104B6000BB6803F01003002B20D0FB6803F0100398
:104B7000002B1BD07B681B686FF010021A617B68EA
:104B800008221A777B681B68DB6903F44073002BEB
:104B900003D0786800F0E8F905E0786800F0DBF908
:104BA000786800F0EAF97B6800221A77BB6803F0A6
:104BB0000103002B0CD0FB6803F00103002B07D08E
:104BC0007B681B686FF001021A617868FCF7F8FED9
:104BD000BB6803F08003002B0CD0FB6803F080035C
:104BE000002B07D07B681B686FF080021A61786821
:104BF00000F0CFFDBB6803F04003002B0CD0FB6836
:104C000003F04003002B07D07B681B686FF0400265
:104C10001A61786800F0C3F9BB6803F02003002B29
:104C20000CD0FB6803F02003002B07D07B681B68C7
:104C30006FF020021A61786800F0A2FD00BF103703
:104C4000BD4680BD80B586B000AFF860B9607A60BF
:104C50000023FB75FB6893F83C30012B01D1022344
:104C6000AEE0FB68012283F83C207B680C2B00F24D
:104C70009F8001A252F823F0AD4C0008B14D00080E
:104C8000B14D0008B14D0008ED4C0008B14D0008D1
:104C9000B14D0008B14D00082F4D0008B14D00087E
:104CA000B14D0008B14D00086F4D0008FB681B684E
:104CB000B968184600F0C4FAFB681B689A69FB687B
:104CC0001B6842F008029A61FB681B689A69FB68DE
:104CD0001B6822F004029A61FB681B689969BB6833
:104CE0001A69FB681B680A439A6164E0FB681B68E9
:104CF000B968184600F00AFBFB681B689A69FB68F4
:104D00001B6842F400629A61FB681B689A69FB6841
:104D10001B6822F480629A61FB681B689969BB6812
:104D20001B691A02FB681B680A439A6143E0FB682F
:104D30001B68B968184600F053FBFB681B68DA690A
:104D4000FB681B6842F00802DA61FB681B68DA69DD
:104D5000FB681B6822F00402DA61FB681B68D969F2
:104D6000BB681A69FB681B680A43DA6123E0FB68C9
:104D70001B68B968184600F09DFBFB681B68DA6980
:104D8000FB681B6842F40062DA61FB681B68DA6941
:104D9000FB681B6822F48062DA61FB681B68D969D2
:104DA000BB681B691A02FB681B680A43DA6102E0F0
:104DB0000123FB7500BFFB68002283F83C20FB7DCC
:104DC00018461837BD4680BD80B584B000AF786006
:104DD00039600023FB737B6893F83C30012B01D1D1
:104DE0000223B4E07B68012283F83C207B68022226
:104DF00083F83D207B681B689B68BB60BB6823F021
:104E00007703BB60BB6823F47F43BB607B681B6890
:104E1000BA689A603B681B68B3F5005F3ED0B3F593
:104E2000005F00F28780B3F5805F00F08680B3F505
:104E3000805F7FD8702B1AD0702B7BD8602B50D01E
:104E4000602B77D8502B3CD0502B73D8402B58D0A8
:104E5000402B6FD8302B64D0302B6BD8202B60D0F8
:104E6000202B67D8002B5CD0102B5AD062E07B68D7
:104E700018683B6899683B685A683B68DB6800F0D3
:104E8000DEFB7B681B689B68BB60BB6843F07703F5
:104E9000BB607B681B68BA689A604FE07B681868E3
:104EA0003B6899683B685A683B68DB6800F0C7FB61
:104EB0007B681B689A687B681B6842F480429A6032
:104EC0003CE07B6818683B6859683B68DB681A46B9
:104ED00000F03EFB7B681B685021184600F095FBF4
:104EE0002CE07B6818683B6859683B68DB681A46A9
:104EF00000F05CFB7B681B686021184600F085FBB6
:104F00001CE07B6818683B6859683B68DB681A4698
:104F100000F01EFB7B681B684021184600F075FB03
:104F20000CE07B681A683B681B681946104600F065
:104F30006CFB03E00123FB7300E000BF7B680122F0
:104F400083F83D207B68002283F83C20FB7B1846D9
:104F50001037BD4680BD80B483B000AF786000BF1D
:104F60000C37BD4680BC704780B483B000AF78601A
:104F700000BF0C37BD4680BC704780B483B000AF23
:104F8000786000BF0C37BD4680BC704780B483B0EA
:104F900000AF786000BF0C37BD4680BC704780B45E
:104FA00083B000AF786000BF0C37BD4680BC70474F
:104FB00080B483B000AF786000BF0C37BD4680BCC2
:104FC000704780B584B000AF78607B685B6AFB6037
:104FD000FB685B6A7A689A4207D1FB6801221A77FC
:104FE000FB68012283F83E202AE0FB689B6A7A680E
:104FF0009A4207D1FB6802221A77FB68012283F8E4
:105000003F201DE0FB68DB6A7A689A4207D1FB68A3
:1050100004221A77FB68012283F8402010E0FB6825
:105020001B6B7A689A4207D1FB6808221A77FB68E3
:10503000012283F8412003E0FB68012283F83D2030
:10504000F868FFF7B5FFFB6800221A7700BF10373A
:10505000BD4680BD80B584B000AF78607B685B6A78
:10506000FB60FB685B6A7A689A420BD1FB6801229D
:105070001A777B689B69002B36D1FB68012283F885
:105080003E2031E0FB689B6A7A689A420BD1FB684C
:1050900002221A777B689B69002B25D1FB680122CD
:1050A00083F83F2020E0FB68DB6A7A689A420BD1E4
:1050B000FB6804221A777B689B69002B14D1FB687C
:1050C000012283F840200FE0FB681B6B7A689A424C
:1050D0000AD1FB6808221A777B689B69002B03D1F1
:1050E000FB68012283F84120F868FFF746FFFB6860
:1050F00000221A7700BF1037BD4680BD80B584B04E
:1051000000AF78607B685B6AFB60FB685B6A7A680B
:105110009A4203D1FB6801221A7719E0FB689B6A67
:105120007A689A4203D1FB6802221A7710E0FB6882
:10513000DB6A7A689A4203D1FB6804221A7707E097
:10514000FB681B6B7A689A4202D1FB6808221A77C7
:10515000F868FFF71BFFFB6800221A7700BF1037C3
:10516000BD4680BD80B485B000AF786039607B6893
:105170001B68FB607B682F4A93420BD07B68B3F1BE
:10518000804F07D07B682C4A934203D07B682B4A20
:10519000934208D1FB6823F07003FB603B685B68B7
:1051A000FA681343FB607B68224A93420BD07B680A
:1051B000B3F1804F07D07B681F4A934203D07B68CE
:1051C0001E4A934208D1FB6823F44073FB603B689E
:1051D000DB68FA681343FB60FB6823F080023B68DE
:1051E0005B691343FB607B68FA681A603B689A68E6
:1051F0007B68DA623B681A687B689A627B680D4A52
:10520000934203D13B681A697B681A637B68012269
:105210005A617B681B6903F00103002B05D07B6892
:105220001B6923F001027B681A6100BF1437BD4679
:1052300080BC7047002C0140000400400008004082
:1052400080B487B000AF786039607B681B6A7B618F
:105250007B681B6A23F001027B681A627B685B68CB
:105260003B617B689B69FB60FB6823F07003FB601C
:10527000FB6823F00303FB603B681B68FA68134379
:10528000FB607B6923F002037B613B689B687A6962
:1052900013437B617B681C4A93420CD17B6923F0EA
:1052A00008037B613B68DB687A6913437B617B6938
:1052B00023F004037B617B68134A934211D13B695D
:1052C00023F480733B613B6923F400733B613B68CB
:1052D0005B693A6913433B613B689B693A691343D5
:1052E0003B617B683A695A607B68FA689A613B68FF
:1052F0005A687B685A637B687A691A6200BF1C37F8
:10530000BD4680BC704700BF002C014080B487B010
:1053100000AF786039607B681B6A7B617B681B6AC1
:1053200023F010027B681A627B685B683B617B68D4
:105330009B69FB60FB6823F4E043FB60FB6823F49C
:105340004073FB603B681B681B02FA681343FB60F9
:105350007B6923F020037B613B689B681B017A69B2
:1053600013437B617B681D4A93420DD17B6923F017
:1053700080037B613B68DB681B017A6913437B61B7
:105380007B6923F040037B617B68144A934213D10D
:105390003B6923F480633B613B6923F400633B6119
:1053A0003B685B699B003A6913433B613B689B69BF
:1053B0009B003A6913433B617B683A695A607B689A
:1053C000FA689A613B685A687B689A637B687A6975
:1053D0001A6200BF1C37BD4680BC7047002C0140DC
:1053E00080B487B000AF786039607B681B6A7B61EE
:1053F0007B681B6A23F480727B681A627B685B6837
:105400003B617B68DB69FB60FB6823F07003FB603A
:10541000FB6823F00303FB603B681B68FA681343D7
:10542000FB607B6923F400737B613B689B681B0214
:105430007A6913437B617B681D4A93420DD17B6976
:1054400023F400637B613B68DB681B027A691343CA
:105450007B617B6923F480637B617B68144A9342A0
:1054600013D13B6923F480533B613B6923F4005320
:105470003B613B685B691B013A6913433B613B68D5
:105480009B691B013A6913433B617B683A695A6027
:105490007B68FA68DA613B685A687B68DA637B6824
:1054A0007A691A6200BF1C37BD4680BC704700BFD6
:1054B000002C014080B487B000AF786039607B6811
:1054C0001B6A3B617B681B6A23F480527B681A620B
:1054D0007B685B687B617B68DB69FB60FB6823F44E
:1054E000E043FB60FB6823F44073FB603B681B6890
:1054F0001B02FA681343FB603B6923F400533B61D2
:105500003B689B681B033A6913433B617B680F4A06
:10551000934209D17B6923F480437B613B685B69DB
:105520009B017A6913437B617B687A695A607B6867
:10553000FA68DA613B685A687B681A647B683A6982
:105540001A6200BF1C37BD4680BC7047002C01406A
:1055500080B487B000AFF860B9607A60FB681B6AFE
:105560007B61FB681B6A23F00102FB681A62FB681F
:105570009B693B613B6923F0F0033B617B681B0146
:105580003A6913433B617B6923F00A037B617A69C3
:10559000BB6813437B61FB683A699A61FB687A696F
:1055A0001A6200BF1C37BD4680BC704780B487B00C
:1055B00000AFF860B9607A60FB681B6A7B61FB68CA
:1055C0001B6A23F01002FB681A62FB689B693B614F
:1055D0003B6923F470433B617B681B033A691343C7
:1055E0003B617B6923F0A0037B61BB681B017A6987
:1055F00013437B61FB683A699A61FB687A691A62B6
:1056000000BF1C37BD4680BC704780B485B000AF7A
:10561000786039607B689B68FB60FB6823F07003EF
:10562000FB603A68FB68134343F00703FB607B6849
:10563000FA689A6000BF1437BD4680BC704780B4DA
:1056400087B000AFF860B9607A603B60FB689B6828
:105650007B617B6923F47F437B613B681A027B6833
:105660001A43BB6813437A6913437B61FB687A6909
:105670009A6000BF1C37BD4680BC704780B487B0BD
:1056800000AFF860B9607A60BB6803F01F030122C5
:1056900002FA03F37B61FB681A6A7B69DB431A40F9
:1056A000FB681A62FB681A6ABB6803F01F0379681B
:1056B00001FA03F31A43FB681A6200BF1C37BD46A8
:1056C00080BC704780B485B000AF786039607B687B
:1056D00093F83C30012B01D1022346E07B68012284
:1056E00083F83C207B68022283F83D207B681B689E
:1056F0005B68FB607B681B689B68BB60FB6823F092
:105700007003FB603B681B68FA681343FB607B68AF
:105710001B68FA685A607B681B68164A93420ED071
:105720007B681B68B3F1804F09D07B681B68124A05
:10573000934204D07B681B68104A93420CD1BB682B
:1057400023F08003BB603B685B68BA681343BB60AF
:105750007B681B68BA689A607B68012283F83D20E9
:105760007B68002283F83C20002318461437BD468E
:1057700080BC7047002C014000040040000800403D
:1057800080B483B000AF786000BF0C37BD4680BCEA
:10579000704780B483B000AF786000BF0C37BD465F
:1057A00080BC704780B582B000AF78607B68002B0A
:1057B00001D1012342E07B6893F84130DBB2002B3A
:1057C00006D17B68002283F840207868FCF770FAE5
:1057D0007B68242283F841207B681B68DA687B6839
:1057E0001B6822F40052DA60786800F063FD7B6881
:1057F0001B681A697B681B6822F490421A617B68F7
:105800001B685A697B681B6822F02A025A617B6810
:105810001B68DA687B681B6842F40052DA607B68B8
:1058200000225A647B68202283F841207B68202272
:1058300083F842207B6800225A6300231846083709
:10584000BD4680BD80B58AB002AFF860B9603B60EC
:105850001346FB8000237B61FB6893F84130DBB289
:10586000202B75D1BB68002B02D0FB88002B01D107
:1058700001236EE0FB6800225A64FB68212283F852
:105880004120FCF70DFC7861FB68FA889A84FB687C
:10589000FA88DA84FB689B68B3F5805F08D1FB68FF
:1058A0001B69002B04D10023FB61BB68BB6103E0D3
:1058B000BB68FB610023BB612EE03B6800937B6902
:1058C00000228021F86800F001FB0346002B05D080
:1058D000FB68202283F8412003233AE0FB69002B78
:1058E0000BD1BB691B881A46FB681B68C2F3080210
:1058F0005A60BB690233BB6107E0FB691A78FB6839
:105900001B685A60FB690133FB61FB68DB8C9BB24F
:10591000013B9AB2FB68DA84FB68DB8C9BB2002BFC
:10592000CBD13B6800937B6900224021F86800F0EE
:10593000CDFA0346002B05D0FB68202283F84120D6
:10594000032306E0FB68202283F84120002300E0C7
:10595000022318462037BD4680BD000080B5BAB08E
:1059600000AF78607B681B681B68C7F8E4307B6811
:105970001B68DB68C7F8E0307B681B685B69C7F8A9
:10598000DC300023C7F8D8300023C7F8D430D7F86C
:10599000E43003F00F03C7F8D830D7F8D830002B25
:1059A0000FD1D7F8E43003F02003002B09D0D7F84B
:1059B000E03003F02003002B03D0786800F0BCFB3C
:1059C0005BE2D7F8D830002B00F0DE80D7F8DC306F
:1059D00003F00103002B06D1D7F8E03003F49073F5
:1059E000002B00F0D180D7F8E43003F00103002B46
:1059F0000BD0D7F8E03003F48073002B05D07B6820
:105A00005B6C43F001027B685A64D7F8E43003F022
:105A10000403002B0BD0D7F8DC3003F00103002B7C
:105A200005D07B685B6C43F002027B685A64D7F850
:105A3000E43003F00203002B0BD0D7F8DC3003F086
:105A40000103002B05D07B685B6C43F004027B688C
:105A50005A64D7F8E43003F00803002B11D0D7F8CC
:105A6000E03003F02003002B05D1D7F8DC3003F041
:105A70000103002B05D07B685B6C43F008027B6858
:105A80005A647B685B6C002B00F0F281D7F8E4303D
:105A900003F02003002B08D0D7F8E03003F02003F8
:105AA000002B02D0786800F047FB7B681B685B69BD
:105AB00003F04003002B14BF01230023DBB2C7F81F
:105AC000D4307B685B6C03F00803002B03D1D7F85C
:105AD000D430002B4FD0786800F051FA7B681B68F7
